{
  "_format": "hh-sol-artifact-1",
  "contractName": "RAW",
  "sourceName": "contracts/RAW.sol",
  "abi": [
    {
      "inputs": [],
      "stateMutability": "nonpayable",
      "type": "constructor"
    },
    {
      "anonymous": false,
      "inputs": [
        {
          "indexed": true,
          "internalType": "address",
          "name": "owner",
          "type": "address"
        },
        {
          "indexed": true,
          "internalType": "address",
          "name": "approved",
          "type": "address"
        },
        {
          "indexed": true,
          "internalType": "uint256",
          "name": "tokenId",
          "type": "uint256"
        }
      ],
      "name": "Approval",
      "type": "event"
    },
    {
      "anonymous": false,
      "inputs": [
        {
          "indexed": true,
          "internalType": "address",
          "name": "owner",
          "type": "address"
        },
        {
          "indexed": true,
          "internalType": "address",
          "name": "operator",
          "type": "address"
        },
        {
          "indexed": false,
          "internalType": "bool",
          "name": "approved",
          "type": "bool"
        }
      ],
      "name": "ApprovalForAll",
      "type": "event"
    },
    {
      "anonymous": false,
      "inputs": [
        {
          "indexed": true,
          "internalType": "address",
          "name": "previousOwner",
          "type": "address"
        },
        {
          "indexed": true,
          "internalType": "address",
          "name": "newOwner",
          "type": "address"
        }
      ],
      "name": "OwnershipTransferred",
      "type": "event"
    },
    {
      "anonymous": false,
      "inputs": [
        {
          "indexed": true,
          "internalType": "address",
          "name": "from",
          "type": "address"
        },
        {
          "indexed": true,
          "internalType": "address",
          "name": "to",
          "type": "address"
        },
        {
          "indexed": true,
          "internalType": "uint256",
          "name": "tokenId",
          "type": "uint256"
        }
      ],
      "name": "Transfer",
      "type": "event"
    },
    {
      "inputs": [],
      "name": "MAX_PER_MINT",
      "outputs": [
        {
          "internalType": "uint256",
          "name": "",
          "type": "uint256"
        }
      ],
      "stateMutability": "view",
      "type": "function"
    },
    {
      "inputs": [],
      "name": "MAX_TOKENS",
      "outputs": [
        {
          "internalType": "uint256",
          "name": "",
          "type": "uint256"
        }
      ],
      "stateMutability": "view",
      "type": "function"
    },
    {
      "inputs": [],
      "name": "MAX_TOKENS_STAGE1",
      "outputs": [
        {
          "internalType": "uint256",
          "name": "",
          "type": "uint256"
        }
      ],
      "stateMutability": "view",
      "type": "function"
    },
    {
      "inputs": [],
      "name": "MAX_TOKENS_STAGE2",
      "outputs": [
        {
          "internalType": "uint256",
          "name": "",
          "type": "uint256"
        }
      ],
      "stateMutability": "view",
      "type": "function"
    },
    {
      "inputs": [],
      "name": "MaxPerWallet",
      "outputs": [
        {
          "internalType": "uint256",
          "name": "",
          "type": "uint256"
        }
      ],
      "stateMutability": "view",
      "type": "function"
    },
    {
      "inputs": [
        {
          "internalType": "address",
          "name": "to",
          "type": "address"
        },
        {
          "internalType": "uint256",
          "name": "tokenId",
          "type": "uint256"
        }
      ],
      "name": "approve",
      "outputs": [],
      "stateMutability": "nonpayable",
      "type": "function"
    },
    {
      "inputs": [
        {
          "internalType": "address",
          "name": "owner",
          "type": "address"
        }
      ],
      "name": "balanceOf",
      "outputs": [
        {
          "internalType": "uint256",
          "name": "",
          "type": "uint256"
        }
      ],
      "stateMutability": "view",
      "type": "function"
    },
    {
      "inputs": [],
      "name": "baseURI",
      "outputs": [
        {
          "internalType": "string",
          "name": "",
          "type": "string"
        }
      ],
      "stateMutability": "view",
      "type": "function"
    },
    {
      "inputs": [
        {
          "internalType": "uint256",
          "name": "tokenId",
          "type": "uint256"
        }
      ],
      "name": "getApproved",
      "outputs": [
        {
          "internalType": "address",
          "name": "",
          "type": "address"
        }
      ],
      "stateMutability": "view",
      "type": "function"
    },
    {
      "inputs": [
        {
          "internalType": "address",
          "name": "owner",
          "type": "address"
        },
        {
          "internalType": "address",
          "name": "operator",
          "type": "address"
        }
      ],
      "name": "isApprovedForAll",
      "outputs": [
        {
          "internalType": "bool",
          "name": "",
          "type": "bool"
        }
      ],
      "stateMutability": "view",
      "type": "function"
    },
    {
      "inputs": [],
      "name": "isRevealed",
      "outputs": [
        {
          "internalType": "bool",
          "name": "",
          "type": "bool"
        }
      ],
      "stateMutability": "view",
      "type": "function"
    },
    {
      "inputs": [],
      "name": "maxBatchSize",
      "outputs": [
        {
          "internalType": "uint256",
          "name": "",
          "type": "uint256"
        }
      ],
      "stateMutability": "view",
      "type": "function"
    },
    {
      "inputs": [],
      "name": "merkleRootStage1",
      "outputs": [
        {
          "internalType": "bytes32",
          "name": "",
          "type": "bytes32"
        }
      ],
      "stateMutability": "view",
      "type": "function"
    },
    {
      "inputs": [],
      "name": "merkleRootStage2",
      "outputs": [
        {
          "internalType": "bytes32",
          "name": "",
          "type": "bytes32"
        }
      ],
      "stateMutability": "view",
      "type": "function"
    },
    {
      "inputs": [
        {
          "internalType": "uint256",
          "name": "tokens",
          "type": "uint256"
        }
      ],
      "name": "mint",
      "outputs": [],
      "stateMutability": "payable",
      "type": "function"
    },
    {
      "inputs": [
        {
          "internalType": "uint256",
          "name": "tokens",
          "type": "uint256"
        },
        {
          "internalType": "bytes32[]",
          "name": "merkleProof",
          "type": "bytes32[]"
        }
      ],
      "name": "mintPresaleStage1",
      "outputs": [],
      "stateMutability": "payable",
      "type": "function"
    },
    {
      "inputs": [
        {
          "internalType": "uint256",
          "name": "tokens",
          "type": "uint256"
        },
        {
          "internalType": "bytes32[]",
          "name": "merkleProof",
          "type": "bytes32[]"
        }
      ],
      "name": "mintPresaleStage2",
      "outputs": [],
      "stateMutability": "payable",
      "type": "function"
    },
    {
      "inputs": [],
      "name": "name",
      "outputs": [
        {
          "internalType": "string",
          "name": "",
          "type": "string"
        }
      ],
      "stateMutability": "view",
      "type": "function"
    },
    {
      "inputs": [],
      "name": "nextOwnerToExplicitlySet",
      "outputs": [
        {
          "internalType": "uint256",
          "name": "",
          "type": "uint256"
        }
      ],
      "stateMutability": "view",
      "type": "function"
    },
    {
      "inputs": [],
      "name": "owner",
      "outputs": [
        {
          "internalType": "address",
          "name": "",
          "type": "address"
        }
      ],
      "stateMutability": "view",
      "type": "function"
    },
    {
      "inputs": [
        {
          "internalType": "address",
          "name": "to",
          "type": "address"
        },
        {
          "internalType": "uint256",
          "name": "tokens",
          "type": "uint256"
        }
      ],
      "name": "ownerMint",
      "outputs": [],
      "stateMutability": "nonpayable",
      "type": "function"
    },
    {
      "inputs": [
        {
          "internalType": "uint256",
          "name": "tokenId",
          "type": "uint256"
        }
      ],
      "name": "ownerOf",
      "outputs": [
        {
          "internalType": "address",
          "name": "",
          "type": "address"
        }
      ],
      "stateMutability": "view",
      "type": "function"
    },
    {
      "inputs": [],
      "name": "presaleStage1Started",
      "outputs": [
        {
          "internalType": "bool",
          "name": "",
          "type": "bool"
        }
      ],
      "stateMutability": "view",
      "type": "function"
    },
    {
      "inputs": [],
      "name": "presaleStage2Started",
      "outputs": [
        {
          "internalType": "bool",
          "name": "",
          "type": "bool"
        }
      ],
      "stateMutability": "view",
      "type": "function"
    },
    {
      "inputs": [],
      "name": "price",
      "outputs": [
        {
          "internalType": "uint256",
          "name": "",
          "type": "uint256"
        }
      ],
      "stateMutability": "view",
      "type": "function"
    },
    {
      "inputs": [],
      "name": "publicSaleStarted",
      "outputs": [
        {
          "internalType": "bool",
          "name": "",
          "type": "bool"
        }
      ],
      "stateMutability": "view",
      "type": "function"
    },
    {
      "inputs": [],
      "name": "renounceOwnership",
      "outputs": [],
      "stateMutability": "nonpayable",
      "type": "function"
    },
    {
      "inputs": [
        {
          "internalType": "address",
          "name": "from",
          "type": "address"
        },
        {
          "internalType": "address",
          "name": "to",
          "type": "address"
        },
        {
          "internalType": "uint256",
          "name": "tokenId",
          "type": "uint256"
        }
      ],
      "name": "safeTransferFrom",
      "outputs": [],
      "stateMutability": "nonpayable",
      "type": "function"
    },
    {
      "inputs": [
        {
          "internalType": "address",
          "name": "from",
          "type": "address"
        },
        {
          "internalType": "address",
          "name": "to",
          "type": "address"
        },
        {
          "internalType": "uint256",
          "name": "tokenId",
          "type": "uint256"
        },
        {
          "internalType": "bytes",
          "name": "_data",
          "type": "bytes"
        }
      ],
      "name": "safeTransferFrom",
      "outputs": [],
      "stateMutability": "nonpayable",
      "type": "function"
    },
    {
      "inputs": [
        {
          "internalType": "address",
          "name": "operator",
          "type": "address"
        },
        {
          "internalType": "bool",
          "name": "approved",
          "type": "bool"
        }
      ],
      "name": "setApprovalForAll",
      "outputs": [],
      "stateMutability": "nonpayable",
      "type": "function"
    },
    {
      "inputs": [
        {
          "internalType": "string",
          "name": "_newBaseURI",
          "type": "string"
        }
      ],
      "name": "setBaseURI",
      "outputs": [],
      "stateMutability": "nonpayable",
      "type": "function"
    },
    {
      "inputs": [
        {
          "internalType": "bytes32",
          "name": "_merkleRoot",
          "type": "bytes32"
        }
      ],
      "name": "setMerkleRootStage1",
      "outputs": [],
      "stateMutability": "nonpayable",
      "type": "function"
    },
    {
      "inputs": [
        {
          "internalType": "bytes32",
          "name": "_merkleRoot",
          "type": "bytes32"
        }
      ],
      "name": "setMerkleRootStage2",
      "outputs": [],
      "stateMutability": "nonpayable",
      "type": "function"
    },
    {
      "inputs": [
        {
          "internalType": "uint256",
          "name": "_newPresaleMaxPerWallet",
          "type": "uint256"
        }
      ],
      "name": "setPresaleMaxPerWallet",
      "outputs": [],
      "stateMutability": "nonpayable",
      "type": "function"
    },
    {
      "inputs": [
        {
          "internalType": "uint256",
          "name": "_newPrice",
          "type": "uint256"
        }
      ],
      "name": "setPrice",
      "outputs": [],
      "stateMutability": "nonpayable",
      "type": "function"
    },
    {
      "inputs": [
        {
          "internalType": "bytes4",
          "name": "interfaceId",
          "type": "bytes4"
        }
      ],
      "name": "supportsInterface",
      "outputs": [
        {
          "internalType": "bool",
          "name": "",
          "type": "bool"
        }
      ],
      "stateMutability": "view",
      "type": "function"
    },
    {
      "inputs": [],
      "name": "symbol",
      "outputs": [
        {
          "internalType": "string",
          "name": "",
          "type": "string"
        }
      ],
      "stateMutability": "view",
      "type": "function"
    },
    {
      "inputs": [],
      "name": "togglePresaleStage1Started",
      "outputs": [],
      "stateMutability": "nonpayable",
      "type": "function"
    },
    {
      "inputs": [],
      "name": "togglePresaleStage2Started",
      "outputs": [],
      "stateMutability": "nonpayable",
      "type": "function"
    },
    {
      "inputs": [],
      "name": "togglePublicSaleStarted",
      "outputs": [],
      "stateMutability": "nonpayable",
      "type": "function"
    },
    {
      "inputs": [],
      "name": "toggleReveal",
      "outputs": [],
      "stateMutability": "nonpayable",
      "type": "function"
    },
    {
      "inputs": [
        {
          "internalType": "uint256",
          "name": "index",
          "type": "uint256"
        }
      ],
      "name": "tokenByIndex",
      "outputs": [
        {
          "internalType": "uint256",
          "name": "",
          "type": "uint256"
        }
      ],
      "stateMutability": "view",
      "type": "function"
    },
    {
      "inputs": [
        {
          "internalType": "address",
          "name": "owner",
          "type": "address"
        },
        {
          "internalType": "uint256",
          "name": "index",
          "type": "uint256"
        }
      ],
      "name": "tokenOfOwnerByIndex",
      "outputs": [
        {
          "internalType": "uint256",
          "name": "",
          "type": "uint256"
        }
      ],
      "stateMutability": "view",
      "type": "function"
    },
    {
      "inputs": [
        {
          "internalType": "uint256",
          "name": "tokenId",
          "type": "uint256"
        }
      ],
      "name": "tokenURI",
      "outputs": [
        {
          "internalType": "string",
          "name": "",
          "type": "string"
        }
      ],
      "stateMutability": "view",
      "type": "function"
    },
    {
      "inputs": [],
      "name": "totalSupply",
      "outputs": [
        {
          "internalType": "uint256",
          "name": "",
          "type": "uint256"
        }
      ],
      "stateMutability": "view",
      "type": "function"
    },
    {
      "inputs": [
        {
          "internalType": "address",
          "name": "from",
          "type": "address"
        },
        {
          "internalType": "address",
          "name": "to",
          "type": "address"
        },
        {
          "internalType": "uint256",
          "name": "tokenId",
          "type": "uint256"
        }
      ],
      "name": "transferFrom",
      "outputs": [],
      "stateMutability": "nonpayable",
      "type": "function"
    },
    {
      "inputs": [
        {
          "internalType": "address",
          "name": "newOwner",
          "type": "address"
        }
      ],
      "name": "transferOwnership",
      "outputs": [],
      "stateMutability": "nonpayable",
      "type": "function"
    },
    {
      "inputs": [],
      "name": "w1",
      "outputs": [
        {
          "internalType": "address",
          "name": "",
          "type": "address"
        }
      ],
      "stateMutability": "view",
      "type": "function"
    },
    {
      "inputs": [],
      "name": "w2",
      "outputs": [
        {
          "internalType": "address",
          "name": "",
          "type": "address"
        }
      ],
      "stateMutability": "view",
      "type": "function"
    },
    {
      "inputs": [],
      "name": "w3",
      "outputs": [
        {
          "internalType": "address",
          "name": "",
          "type": "address"
        }
      ],
      "stateMutability": "view",
      "type": "function"
    },
    {
      "inputs": [],
      "name": "withdrawAll",
      "outputs": [],
      "stateMutability": "nonpayable",
      "type": "function"
    }
  ],
  "bytecode": "0x60008080556007819055662386f26fc10000600955600a805463ffffffff191690556001600c5560c0604081905260a08290526200004191600d9190620001b8565b507f1ec77273b979842b8d532d638dcdd667dc9d39a28d56a0eeac3d46e2505dd34f600e819055600f553480156200007857600080fd5b506040518060400160405280600e81526020016d52656420417374726f205761727360901b8152506040518060400160405280600381526020016252415760e81b815250601460008111620001235760405162461bcd60e51b815260206004820152602760248201527f455243373231413a206d61782062617463682073697a65206d757374206265206044820152666e6f6e7a65726f60c81b606482015260840160405180910390fd5b825162000138906001906020860190620001b8565b5081516200014e906002906020850190620001b8565b50608052506200016090503362000166565b6200029b565b600880546001600160a01b038381166001600160a01b0319831681179093556040519116919082907f8be0079c531659141344cd1fd0a4f28419497f9722a3daafe3b4186f6b6457e090600090a35050565b828054620001c6906200025e565b90600052602060002090601f016020900481019282620001ea576000855562000235565b82601f106200020557805160ff191683800117855562000235565b8280016001018555821562000235579182015b828111156200023557825182559160200191906001019062000218565b506200024392915062000247565b5090565b5b8082111562000243576000815560010162000248565b600181811c908216806200027357607f821691505b602082108114156200029557634e487b7160e01b600052602260045260246000fd5b50919050565b608051612f27620002cc6000396000818161048801528181611f5701528181611f8101526124a20152612f276000f3fe6080604052600436106102e45760003560e01c80636352211e11610190578063a0712d68116100dc578063d7224ba011610095578063f134c7201161006f578063f134c72014610882578063f2fde38b14610897578063f3bfa08e146108b7578063f47c84c5146108d857600080fd5b8063d7224ba014610803578063de8fc79514610819578063e985e9c51461083957600080fd5b8063a0712d6814610751578063a22cb46514610764578063a2e9147714610784578063b7f1384c146107a3578063b88d4fde146107c3578063c87b56dd146107e357600080fd5b80638b87b4ff1161014957806391b7f5ed1161012357806391b7f5ed146106de57806395d89b41146106fe578063a035b1fe14610713578063a044c9871461072957600080fd5b80638b87b4ff146106955780638bec1c6d146106aa5780638da5cb5b146106c057600080fd5b80636352211e146105ee5780636c0360eb1461060e57806370a0823114610623578063715018a6146106435780637e44755b14610658578063853828b61461068057600080fd5b80632913daa01161024f5780634c0770f01161020857806354214f69116101e257806354214f691461058a57806355f804b3146105a45780635b8ad429146105c4578063613151e4146105d957600080fd5b80634c0770f0146105355780634f6ccce714610555578063501542b11461057557600080fd5b80632913daa0146104765780632f745c59146104aa5780632f814575146104ca57806342842e0e146104df578063484b973c146104ff57806349da92511461051f57600080fd5b8063095ea7b3116102a1578063095ea7b3146103d557806309d42b30146103f557806318160ddd1461041857806323b872dd1461042d5780632553bb421461044d578063266cf4551461046057600080fd5b806301ffc9a7146102e957806303cf8a201461031e578063067f5ece1461035e57806306fdde031461037e578063081812fc146103a057806308439d31146103c0575b600080fd5b3480156102f557600080fd5b50610309610304366004612766565b6108ee565b60405190151581526020015b60405180910390f35b34801561032a57600080fd5b50610346735ac3163754fc54fea1541c7fe1d707b5f7c4de8481565b6040516001600160a01b039091168152602001610315565b34801561036a57600080fd5b50600a546103099062010000900460ff1681565b34801561038a57600080fd5b5061039361095b565b60405161031591906127e2565b3480156103ac57600080fd5b506103466103bb3660046127f5565b6109ed565b6103d36103ce36600461280e565b610a7d565b005b3480156103e157600080fd5b506103d36103f03660046128a4565b610d61565b34801561040157600080fd5b5061040a600381565b604051908152602001610315565b34801561042457600080fd5b5060005461040a565b34801561043957600080fd5b506103d36104483660046128ce565b610e79565b6103d361045b36600461280e565b610e84565b34801561046c57600080fd5b5061040a600f5481565b34801561048257600080fd5b5061040a7f000000000000000000000000000000000000000000000000000000000000000081565b3480156104b657600080fd5b5061040a6104c53660046128a4565b610f70565b3480156104d657600080fd5b506103d36110de565b3480156104eb57600080fd5b506103d36104fa3660046128ce565b611125565b34801561050b57600080fd5b506103d361051a3660046128a4565b611140565b34801561052b57600080fd5b5061040a600e5481565b34801561054157600080fd5b506103d36105503660046127f5565b6111cd565b34801561056157600080fd5b5061040a6105703660046127f5565b6111fc565b34801561058157600080fd5b506103d361125e565b34801561059657600080fd5b50600a546103099060ff1681565b3480156105b057600080fd5b506103d36105bf366004612996565b6112a7565b3480156105d057600080fd5b506103d36112e4565b3480156105e557600080fd5b5061040a60c881565b3480156105fa57600080fd5b506103466106093660046127f5565b611322565b34801561061a57600080fd5b50610393611334565b34801561062f57600080fd5b5061040a61063e3660046129df565b6113c2565b34801561064f57600080fd5b506103d3611453565b34801561066457600080fd5b5061034673326d4ff1fd7bd2a6741192aba6176300d3f4ca7181565b34801561068c57600080fd5b506103d3611489565b3480156106a157600080fd5b5061040a606481565b3480156106b657600080fd5b5061040a600c5481565b3480156106cc57600080fd5b506008546001600160a01b0316610346565b3480156106ea57600080fd5b506103d36106f93660046127f5565b61157d565b34801561070a57600080fd5b506103936115bf565b34801561071f57600080fd5b5061040a60095481565b34801561073557600080fd5b5061034673167ff7402f1b545a49a117fd23a0360afe8761c181565b6103d361075f3660046127f5565b6115ce565b34801561077057600080fd5b506103d361077f3660046129fa565b6117ab565b34801561079057600080fd5b50600a5461030990610100900460ff1681565b3480156107af57600080fd5b506103d36107be3660046127f5565b611870565b3480156107cf57600080fd5b506103d36107de366004612a36565b61189f565b3480156107ef57600080fd5b506103936107fe3660046127f5565b6118d8565b34801561080f57600080fd5b5061040a60075481565b34801561082557600080fd5b506103d36108343660046127f5565b6119af565b34801561084557600080fd5b50610309610854366004612ab2565b6001600160a01b03918216600090815260066020908152604080832093909416825291909152205460ff1690565b34801561088e57600080fd5b506103d36119de565b3480156108a357600080fd5b506103d36108b23660046129df565b611a29565b3480156108c357600080fd5b50600a54610309906301000000900460ff1681565b3480156108e457600080fd5b5061040a611e6181565b60006001600160e01b031982166380ac58cd60e01b148061091f57506001600160e01b03198216635b5e139f60e01b145b8061093a57506001600160e01b0319821663780e9d6360e01b145b8061095557506301ffc9a760e01b6001600160e01b03198316145b92915050565b60606001805461096a90612ae5565b80601f016020809104026020016040519081016040528092919081815260200182805461099690612ae5565b80156109e35780601f106109b8576101008083540402835291602001916109e3565b820191906000526020600020905b8154815290600101906020018083116109c657829003601f168201915b5050505050905090565b60006109fa826000541190565b610a615760405162461bcd60e51b815260206004820152602d60248201527f455243373231413a20617070726f76656420717565727920666f72206e6f6e6560448201526c3c34b9ba32b73a103a37b5b2b760991b60648201526084015b60405180910390fd5b506000908152600560205260409020546001600160a01b031690565b600a5462010000900460ff16610ad55760405162461bcd60e51b815260206004820152601c60248201527f5241573a2050726573616c6520686173206e6f742073746172746564000000006044820152606401610a58565b606483610ae160005490565b610aeb9190612b36565b1115610b095760405162461bcd60e51b8152600401610a5890612b4e565b610b7f82828080602002602001604051908101604052809392919081815260200183836020028082843760009201919091525050600e546040516bffffffffffffffffffffffff193360601b16602082015290925060340190505b60405160208183030381529060405280519060200120611ac1565b610bdd5760405162461bcd60e51b815260206004820152602960248201527f5241573a20596f7520617265206e6f7420656c696769626c6520666f72207468604482015268652070726573616c6560b81b6064820152608401610a58565b600c54336000908152600b6020526040902054610bfb908590612b36565b1115610c5c5760405162461bcd60e51b815260206004820152602a60248201527f5241573a2050726573616c65206c696d697420666f7220746869732077616c6c604482015269195d081c995858da195960b21b6064820152608401610a58565b6003831115610c7d5760405162461bcd60e51b8152600401610a5890612b92565b611e6183610c8a60005490565b610c949190612b36565b1115610cb25760405162461bcd60e51b8152600401610a5890612b4e565b60008311610cd25760405162461bcd60e51b8152600401610a5890612be8565b3483600954610ce19190612c29565b14610d2e5760405162461bcd60e51b815260206004820152601c60248201527f5241573a2045544820616d6f756e7420697320696e636f7272656374000000006044820152606401610a58565b610d383384611ad7565b336000908152600b602052604081208054859290610d57908490612b36565b9091555050505050565b6000610d6c82611322565b9050806001600160a01b0316836001600160a01b03161415610ddb5760405162461bcd60e51b815260206004820152602260248201527f455243373231413a20617070726f76616c20746f2063757272656e74206f776e60448201526132b960f11b6064820152608401610a58565b336001600160a01b0382161480610df75750610df78133610854565b610e695760405162461bcd60e51b815260206004820152603960248201527f455243373231413a20617070726f76652063616c6c6572206973206e6f74206f60448201527f776e6572206e6f7220617070726f76656420666f7220616c6c000000000000006064820152608401610a58565b610e74838383611af1565b505050565b610e74838383611b4d565b600a546301000000900460ff16610edd5760405162461bcd60e51b815260206004820152601c60248201527f5241573a2050726573616c6520686173206e6f742073746172746564000000006044820152606401610a58565b60c883610ee960005490565b610ef39190612b36565b1115610f115760405162461bcd60e51b8152600401610a5890612b4e565b610b7f82828080602002602001604051908101604052809392919081815260200183836020028082843760009201919091525050600f546040516bffffffffffffffffffffffff193360601b1660208201529092506034019050610b64565b6000610f7b836113c2565b8210610fd45760405162461bcd60e51b815260206004820152602260248201527f455243373231413a206f776e657220696e646578206f7574206f6620626f756e604482015261647360f01b6064820152608401610a58565b600080549080805b8381101561107e576000818152600360209081526040918290208251808401909352546001600160a01b038116808452600160a01b90910467ffffffffffffffff16918301919091521561102f57805192505b876001600160a01b0316836001600160a01b0316141561106b578684141561105d5750935061095592505050565b8361106781612c48565b9450505b508061107681612c48565b915050610fdc565b5060405162461bcd60e51b815260206004820152602e60248201527f455243373231413a20756e61626c6520746f2067657420746f6b656e206f662060448201526d0deeedccae440c4f240d2dcc8caf60931b6064820152608401610a58565b6008546001600160a01b031633146111085760405162461bcd60e51b8152600401610a5890612c63565b600a805461ff001981166101009182900460ff1615909102179055565b610e748383836040518060200160405280600081525061189f565b6008546001600160a01b0316331461116a5760405162461bcd60e51b8152600401610a5890612c63565b611e618161117760005490565b6111819190612b36565b111561119f5760405162461bcd60e51b8152600401610a5890612b4e565b600081116111bf5760405162461bcd60e51b8152600401610a5890612be8565b6111c98282611ad7565b5050565b6008546001600160a01b031633146111f75760405162461bcd60e51b8152600401610a5890612c63565b600c55565b60008054821061125a5760405162461bcd60e51b815260206004820152602360248201527f455243373231413a20676c6f62616c20696e646578206f7574206f6620626f756044820152626e647360e81b6064820152608401610a58565b5090565b6008546001600160a01b031633146112885760405162461bcd60e51b8152600401610a5890612c63565b600a805462ff0000198116620100009182900460ff1615909102179055565b6008546001600160a01b031633146112d15760405162461bcd60e51b8152600401610a5890612c63565b80516111c990600d9060208401906126c0565b6008546001600160a01b0316331461130e5760405162461bcd60e51b8152600401610a5890612c63565b600a805460ff19811660ff90911615179055565b600061132d82611ed5565b5192915050565b600d805461134190612ae5565b80601f016020809104026020016040519081016040528092919081815260200182805461136d90612ae5565b80156113ba5780601f1061138f576101008083540402835291602001916113ba565b820191906000526020600020905b81548152906001019060200180831161139d57829003601f168201915b505050505081565b60006001600160a01b03821661142e5760405162461bcd60e51b815260206004820152602b60248201527f455243373231413a2062616c616e636520717565727920666f7220746865207a60448201526a65726f206164647265737360a81b6064820152608401610a58565b506001600160a01b03166000908152600460205260409020546001600160801b031690565b6008546001600160a01b0316331461147d5760405162461bcd60e51b8152600401610a5890612c63565b611487600061207f565b565b6008546001600160a01b031633146114b35760405162461bcd60e51b8152600401610a5890612c63565b47806115015760405162461bcd60e51b815260206004820152601860248201527f5241573a20496e737566666963656e742062616c616e636500000000000000006044820152606401610a58565b61153673167ff7402f1b545a49a117fd23a0360afe8761c16103e861152784602d612c29565b6115319190612cae565b6120d1565b61155c735ac3163754fc54fea1541c7fe1d707b5f7c4de846103e861152784602d612c29565b61157a73326d4ff1fd7bd2a6741192aba6176300d3f4ca71476120d1565b50565b6008546001600160a01b031633146115a75760405162461bcd60e51b8152600401610a5890612c63565b6115b981670de0b6b3a7640000612c29565b60095550565b60606002805461096a90612ae5565b600a54610100900460ff166116255760405162461bcd60e51b815260206004820181905260248201527f5241573a205075626c69632073616c6520686173206e6f7420737461727465646044820152606401610a58565b60038111156116465760405162461bcd60e51b8152600401610a5890612b92565b600c54336000908152600b6020526040902054611664908390612b36565b11156116c95760405162461bcd60e51b815260206004820152602e60248201527f5241573a205075626c69632073616c65206c696d697420666f7220746869732060448201526d1dd85b1b195d081c995858da195960921b6064820152608401610a58565b611e61816116d660005490565b6116e09190612b36565b11156116fe5760405162461bcd60e51b8152600401610a5890612b4e565b6000811161171e5760405162461bcd60e51b8152600401610a5890612be8565b348160095461172d9190612c29565b1461177a5760405162461bcd60e51b815260206004820152601c60248201527f5241573a2045544820616d6f756e7420697320696e636f7272656374000000006044820152606401610a58565b6117843382611ad7565b336000908152600b6020526040812080548392906117a3908490612b36565b909155505050565b6001600160a01b0382163314156118045760405162461bcd60e51b815260206004820152601a60248201527f455243373231413a20617070726f766520746f2063616c6c65720000000000006044820152606401610a58565b3360008181526006602090815260408083206001600160a01b03871680855290835292819020805460ff191686151590811790915590519081529192917f17307eab39ab6107e8899845ad3d59bd9653f200f220920489ca2b5937696c31910160405180910390a35050565b6008546001600160a01b0316331461189a5760405162461bcd60e51b8152600401610a5890612c63565b600f55565b6118aa848484611b4d565b6118b684848484612174565b6118d25760405162461bcd60e51b8152600401610a5890612cc2565b50505050565b600a5460609060ff161561191857600d6118f183612273565b604051602001611902929190612d31565b6040516020818303038152906040529050919050565b600d805461192590612ae5565b80601f016020809104026020016040519081016040528092919081815260200182805461195190612ae5565b801561199e5780601f106119735761010080835404028352916020019161199e565b820191906000526020600020905b81548152906001019060200180831161198157829003601f168201915b50505050509050919050565b919050565b6008546001600160a01b031633146119d95760405162461bcd60e51b8152600401610a5890612c63565b600e55565b6008546001600160a01b03163314611a085760405162461bcd60e51b8152600401610a5890612c63565b600a805463ff00000019811663010000009182900460ff1615909102179055565b6008546001600160a01b03163314611a535760405162461bcd60e51b8152600401610a5890612c63565b6001600160a01b038116611ab85760405162461bcd60e51b815260206004820152602660248201527f4f776e61626c653a206e6577206f776e657220697320746865207a65726f206160448201526564647265737360d01b6064820152608401610a58565b61157a8161207f565b600082611ace8584612371565b14949350505050565b6111c98282604051806020016040528060008152506123e5565b60008281526005602052604080822080546001600160a01b0319166001600160a01b0387811691821790925591518593918516917f8c5be1e5ebec7d5bd14f71427d1e84f3dd0314c0f7b2291e5b200ac8c7c3b92591a4505050565b6000611b5882611ed5565b80519091506000906001600160a01b0316336001600160a01b03161480611b8f575033611b84846109ed565b6001600160a01b0316145b80611ba157508151611ba19033610854565b905080611c0b5760405162461bcd60e51b815260206004820152603260248201527f455243373231413a207472616e736665722063616c6c6572206973206e6f74206044820152711bdddb995c881b9bdc88185c1c1c9bdd995960721b6064820152608401610a58565b846001600160a01b031682600001516001600160a01b031614611c7f5760405162461bcd60e51b815260206004820152602660248201527f455243373231413a207472616e736665722066726f6d20696e636f72726563746044820152651037bbb732b960d11b6064820152608401610a58565b6001600160a01b038416611ce35760405162461bcd60e51b815260206004820152602560248201527f455243373231413a207472616e7366657220746f20746865207a65726f206164604482015264647265737360d81b6064820152608401610a58565b611cf36000848460000151611af1565b6001600160a01b0385166000908152600460205260408120805460019290611d259084906001600160801b0316612dec565b82546101009290920a6001600160801b038181021990931691831602179091556001600160a01b03861660009081526004602052604081208054600194509092611d7191859116612e14565b82546001600160801b039182166101009390930a9283029190920219909116179055506040805180820182526001600160a01b03808716825267ffffffffffffffff428116602080850191825260008981526003909152948520935184549151909216600160a01b026001600160e01b03199091169190921617179055611df9846001612b36565b6000818152600360205260409020549091506001600160a01b0316611e8b57611e23816000541190565b15611e8b5760408051808201825284516001600160a01b03908116825260208087015167ffffffffffffffff9081168285019081526000878152600390935294909120925183549451909116600160a01b026001600160e01b03199094169116179190911790555b83856001600160a01b0316876001600160a01b03167fddf252ad1be2c89b69c2b068fc378daa952ba7f163c4a11628f55a4df523b3ef60405160405180910390a45b505050505050565b6040805180820190915260008082526020820152611ef4826000541190565b611f535760405162461bcd60e51b815260206004820152602a60248201527f455243373231413a206f776e657220717565727920666f72206e6f6e657869736044820152693a32b73a103a37b5b2b760b11b6064820152608401610a58565b60007f00000000000000000000000000000000000000000000000000000000000000008310611fb457611fa67f000000000000000000000000000000000000000000000000000000000000000084612e3f565b611fb1906001612b36565b90505b825b81811061201e576000818152600360209081526040918290208251808401909352546001600160a01b038116808452600160a01b90910467ffffffffffffffff16918301919091521561200b57949350505050565b508061201681612e56565b915050611fb6565b5060405162461bcd60e51b815260206004820152602f60248201527f455243373231413a20756e61626c6520746f2064657465726d696e652074686560448201526e1037bbb732b91037b3103a37b5b2b760891b6064820152608401610a58565b600880546001600160a01b038381166001600160a01b0319831681179093556040519116919082907f8be0079c531659141344cd1fd0a4f28419497f9722a3daafe3b4186f6b6457e090600090a35050565b6000826001600160a01b03168260405160006040518083038185875af1925050503d806000811461211e576040519150601f19603f3d011682016040523d82523d6000602084013e612123565b606091505b5050905080610e745760405162461bcd60e51b815260206004820152601e60248201527f5241573a204661696c656420746f2077696474686472617720457468657200006044820152606401610a58565b60006001600160a01b0384163b1561226757604051630a85bd0160e11b81526001600160a01b0385169063150b7a02906121b8903390899088908890600401612e6d565b6020604051808303816000875af19250505080156121f3575060408051601f3d908101601f191682019092526121f091810190612eaa565b60015b61224d573d808015612221576040519150601f19603f3d011682016040523d82523d6000602084013e612226565b606091505b5080516122455760405162461bcd60e51b8152600401610a5890612cc2565b805181602001fd5b6001600160e01b031916630a85bd0160e11b14905061226b565b5060015b949350505050565b6060816122975750506040805180820190915260018152600360fc1b602082015290565b8160005b81156122c157806122ab81612c48565b91506122ba9050600a83612cae565b915061229b565b60008167ffffffffffffffff8111156122dc576122dc61290a565b6040519080825280601f01601f191660200182016040528015612306576020820181803683370190505b5090505b841561226b5761231b600183612e3f565b9150612328600a86612ec7565b612333906030612b36565b60f81b81838151811061234857612348612edb565b60200101906001600160f81b031916908160001a90535061236a600a86612cae565b945061230a565b600081815b84518110156123dd57600085828151811061239357612393612edb565b602002602001015190508083116123b957600083815260208290526040902092506123ca565b600081815260208490526040902092505b50806123d581612c48565b915050612376565b509392505050565b6000546001600160a01b0384166124485760405162461bcd60e51b815260206004820152602160248201527f455243373231413a206d696e7420746f20746865207a65726f206164647265736044820152607360f81b6064820152608401610a58565b612453816000541190565b156124a05760405162461bcd60e51b815260206004820152601d60248201527f455243373231413a20746f6b656e20616c7265616479206d696e7465640000006044820152606401610a58565b7f000000000000000000000000000000000000000000000000000000000000000083111561251b5760405162461bcd60e51b815260206004820152602260248201527f455243373231413a207175616e7469747920746f206d696e7420746f6f2068696044820152610ced60f31b6064820152608401610a58565b6001600160a01b0384166000908152600460209081526040918290208251808401845290546001600160801b038082168352600160801b9091041691810191909152815180830190925280519091908190612577908790612e14565b6001600160801b031681526020018583602001516125959190612e14565b6001600160801b039081169091526001600160a01b0380881660008181526004602090815260408083208751978301518716600160801b0297909616969096179094558451808601865291825267ffffffffffffffff4281168386019081528883526003909552948120915182549451909516600160a01b026001600160e01b031990941694909216939093179190911790915582905b858110156126b55760405182906001600160a01b038916906000907fddf252ad1be2c89b69c2b068fc378daa952ba7f163c4a11628f55a4df523b3ef908290a46126796000888488612174565b6126955760405162461bcd60e51b8152600401610a5890612cc2565b8161269f81612c48565b92505080806126ad90612c48565b91505061262c565b506000819055611ecd565b8280546126cc90612ae5565b90600052602060002090601f0160209004810192826126ee5760008555612734565b82601f1061270757805160ff1916838001178555612734565b82800160010185558215612734579182015b82811115612734578251825591602001919060010190612719565b5061125a9291505b8082111561125a576000815560010161273c565b6001600160e01b03198116811461157a57600080fd5b60006020828403121561277857600080fd5b813561278381612750565b9392505050565b60005b838110156127a557818101518382015260200161278d565b838111156118d25750506000910152565b600081518084526127ce81602086016020860161278a565b601f01601f19169290920160200192915050565b60208152600061278360208301846127b6565b60006020828403121561280757600080fd5b5035919050565b60008060006040848603121561282357600080fd5b83359250602084013567ffffffffffffffff8082111561284257600080fd5b818601915086601f83011261285657600080fd5b81358181111561286557600080fd5b8760208260051b850101111561287a57600080fd5b6020830194508093505050509250925092565b80356001600160a01b03811681146119aa57600080fd5b600080604083850312156128b757600080fd5b6128c08361288d565b946020939093013593505050565b6000806000606084860312156128e357600080fd5b6128ec8461288d565b92506128fa6020850161288d565b9150604084013590509250925092565b634e487b7160e01b600052604160045260246000fd5b600067ffffffffffffffff8084111561293b5761293b61290a565b604051601f8501601f19908116603f011681019082821181831017156129635761296361290a565b8160405280935085815286868601111561297c57600080fd5b858560208301376000602087830101525050509392505050565b6000602082840312156129a857600080fd5b813567ffffffffffffffff8111156129bf57600080fd5b8201601f810184136129d057600080fd5b61226b84823560208401612920565b6000602082840312156129f157600080fd5b6127838261288d565b60008060408385031215612a0d57600080fd5b612a168361288d565b915060208301358015158114612a2b57600080fd5b809150509250929050565b60008060008060808587031215612a4c57600080fd5b612a558561288d565b9350612a636020860161288d565b925060408501359150606085013567ffffffffffffffff811115612a8657600080fd5b8501601f81018713612a9757600080fd5b612aa687823560208401612920565b91505092959194509250565b60008060408385031215612ac557600080fd5b612ace8361288d565b9150612adc6020840161288d565b90509250929050565b600181811c90821680612af957607f821691505b60208210811415612b1a57634e487b7160e01b600052602260045260246000fd5b50919050565b634e487b7160e01b600052601160045260246000fd5b60008219821115612b4957612b49612b20565b500190565b60208082526024908201527f5241573a204d696e74696e6720776f756c6420657863656564206d617820737560408201526370706c7960e01b606082015260800190565b60208082526036908201527f5241573a2043616e6e6f742070757263686173652074686973206d616e79207460408201527537b5b2b7399034b71030903a3930b739b0b1ba34b7b760511b606082015260800190565b60208082526021908201527f5241573a204d757374206d696e74206174206c65617374206f6e6520746f6b656040820152603760f91b606082015260800190565b6000816000190483118215151615612c4357612c43612b20565b500290565b6000600019821415612c5c57612c5c612b20565b5060010190565b6020808252818101527f4f776e61626c653a2063616c6c6572206973206e6f7420746865206f776e6572604082015260600190565b634e487b7160e01b600052601260045260246000fd5b600082612cbd57612cbd612c98565b500490565b60208082526033908201527f455243373231413a207472616e7366657220746f206e6f6e204552433732315260408201527232b1b2b4bb32b91034b6b83632b6b2b73a32b960691b606082015260800190565b60008151612d2781856020860161278a565b9290920192915050565b600080845481600182811c915080831680612d4d57607f831692505b6020808410821415612d6d57634e487b7160e01b86526022600452602486fd5b818015612d815760018114612d9257612dbf565b60ff19861689528489019650612dbf565b60008b81526020902060005b86811015612db75781548b820152908501908301612d9e565b505084890196505b505050505050612de3612dd28286612d15565b64173539b7b760d91b815260050190565b95945050505050565b60006001600160801b0383811690831681811015612e0c57612e0c612b20565b039392505050565b60006001600160801b03808316818516808303821115612e3657612e36612b20565b01949350505050565b600082821015612e5157612e51612b20565b500390565b600081612e6557612e65612b20565b506000190190565b6001600160a01b0385811682528416602082015260408101839052608060608201819052600090612ea0908301846127b6565b9695505050505050565b600060208284031215612ebc57600080fd5b815161278381612750565b600082612ed657612ed6612c98565b500690565b634e487b7160e01b600052603260045260246000fdfea2646970667358221220414bc96277e286f96da32069d2bbec43dbf9e504e9947ff3f9747f8c52f951ad64736f6c634300080a0033",
  "linkReferences": {},
  "deployedLinkReferences": {}
}